S01B000043616E436F6D6D756E69636174696F6E5F76362E7372656396
S113000049C0000057C0000055C0000053C00000A4
S113001051C000004FC000004DC000004BC00000A4
S113002049C0000047C0000045C0000043C00000B4
S113003041C000003FC000003DC000003BC00000C4
S113004039C0000037C0000051C0000033C00000B8
S113005031C000002FC000002DC000002BC00000E4
S113006029C0000027C0000025C0000023C00000F4
S113007021C000001FC000001DC000001BC0000004
S113008019C0000017C0000015C0000013C0000014
S113009011C0000011241FBECFEFD0E1DEBFCDBFE1
S11300A021E0A0E0B1E001C01D92A031B207E1F768
S11300B007D132C1A5CF8093C4009093C50086E0D8
S11300C08093C20088E18093C1000895E0ECF0E0E1
S11300D080818823ECF78091C6000895E0ECF0E07D
S11300E0908195FFFDCF8093C60008951F920F92D3
S11300F00FB60F9211240BB60F92EF92FF920F934B
S11301001F932F933F934F935F936F937F938F939B
S11301109F93AF93BF93CF93DF93EF93FF93EDEE52
S1130120F0E000818091EC00807F8083C091F30037
S11301308091F200829586958770D0E0CC0FDD1F08
S1130140CC0FDD1FCC0FDD1FC82B8D2FC7DF8C2FED
S1130150C5DF8091EE0085FF1CC01091EF001F7079
S1130160111694F4C0E0D0E00F2EFAEFEF2EF12C2C
S1130170F02DF7018081FE01E050FF4F80838081E4
S1130180ADDF2196C117ACF31092EE0083E88093A3
S1130190EF000093ED00FF91EF91DF91CF91BF91BC
S11301A0AF919F918F917F916F915F914F913F910B
S11301B02F911F910F91FF90EF900F900BBE0F9016
S11301C00FBE0F901F901895E1E6F0E080E8808361
S11301D010820895CF93DF9381E08093D80010922A
S11301E0E50082E08093E2008CE08093E30087E303
S11301F08093E40080E0CDEED0E0AFEEB0E0EEEE30
S1130200F0E0982F9295907F98831C9210828F5FD4
S11302108E30B9F782E08093DE0080EA8093DB00C1
S113022080E18093ED001092F7001092F600109296
S1130230F5001092F40083E88093EF00E8EDF0E01D
S11302408081826080837894DF91CF9108959C01AE
S11302501092ED00ECEDF0E0908190FDFDCF109256
S1130260EE001092F0001092F100822F8295880F18
S1130270807E8093F200369527953695279536959E
S113028027952093F30080E090E0AAEFB0E0FC0112
S1130290E85FFE4F20812C93019688309105B9F7D1
S11302A060646093EF00EEEEF0E0808186FFFDCFA6
S11302B01092EF001092EE0080E18093ED0008951B
S11302C088E090E0F8DE80DF85DF80E18DB9749806
S11302D0C12CD12CFBDE082F01DFF8DEE82EFEDE78
S11302E0F12CFE2CEE24F2DEC82FF8DEEC0EF11C0D
S11302F0002361F0CC2DDD2DE9DE182FEFDEFE01A9
S1130300E85FFE4F10832196C017B0F38DEDE6DE53
S10F0310602FC7019CDFDECFF894FFCF04
S9030000FC
