S00B00004D43552E7372656334
S1130000A5C00000C1C00000BFC00000BDC000000A
S1130010BBC00000B9C00000B7C00000B5C00000FC
S1130020B3C00000B1C0000098C40000ADC000001F
S1130030ABC00000A9C00000A7C00000A5C000001C
S1130040A3C00000C2C4000072C100009DC0000033
S11300509BC0000099C0000097C0000095C000003C
S113006093C0000091C000008FC000008DC000004C
S11300708BC0000089C0000087C0000085C000005C
S113008083C0000081C000007FC000007DC000006C
S11300907BC00000F702DB02E902200320032003F7
S11300A02003200320032003200320032003200334
S11300B020032003E60141028E02200320032003D3
S11300C02003200320032003200320032003200314
S11300D0200320030503200320032003200320031F
S11300E020032003200320032003200320032003F4
S11300F020032003130320032003200320032003F1
S113010020032003200320032003200320032003D3
S113011020032003200320032003200320032003C3
S113012020032003200320032003200320032003B3
S113013020032003D2026B034A034D0350035303ED
S1130140560359035C035F036203650311241FBE56
S1130150CFEFD0E1DEBFCDBF13E0A0E0B1E0E2E538
S1130160F7E100E00BBF02C007900D92A234B10783
S1130170D9F723E0A2E4B3E001C01D92A93CB20781
S1130180E1F768D50C94A70B3BCFCF93DF9381E0C5
S11301908093D8001092E50082E08093E2008CE026
S11301A08093E30087E38093E40080E0CDEED0E029
S11301B0AFEEB0E0EEEEF0E0982F9295907F98834A
S11301C01C9210828F5F8E30B9F782E08093DE003C
S11301D080EA8093DB00E8EDF0E080818260808338
S11301E0DF91CF91089520E12093ED009C01369595
S11301F0279536952795369527952093F300829574
S1130200880F807E8093F2001092F1001092F0002B
S11302108FEF8093F70080EE8093F60083E880935D
S1130220EF000895CF93DF939C011092ED00ECED65
S1130230F0E0908190FDFDCF1092EE001092F0005E
S11302401092F100822F8295880F807E8093F200B5
S11302503695279536952795369527952093F3005F
S1130260E5E6F3E02DE633E0DF01CAEFD0E08D915F
S11302708883A217B307D9F760646093EF00AEEEEA
S1130280B0E08C9186FFFDCF1092EF001092EE004B
S113029080E18093ED0011922E173F07E1F7DF9183
S11302A0CF910895CF93DF9380936503222379F050
S11302B0FB01A6E6B3E08FEF820FC82FD0E02196B2
S11302C0C60FD71F81918D93EC17FD07D9F761E015
S11302D0620FCA01A7DFDF91CF910895CF93DF9317
S11302E01F92CDB7DEB7698321E0BE016F5F7F4FF8
S11302F0D9DF0F90DF91CF910895CF93DF9300D092
S1130300CDB7DEB769837A8322E0BE016F5F7F4F8A
S1130310C9DF0F900F90DF91CF910895E5E6F3E0E8
S11303208083618362E085E092E07CCF08951F9230
S11303300F920FB60F9211240BB60F922F933F9387
S11303404F935F936F937F938F939F93AF93BF93D9
S1130350EF93FF9380E18093ED004091EF004F70A5
S113036050E01416150694F480E090E020E0EAEFE3
S1130370F0E03081DC01A359BC4F3C932F5F822F06
S1130380022E000C990B841795079CF38091F300BF
S11303902091F20090E0880F991F880F991F880F11
S11303A0991F229526952770822B8731934009F057
S11303B047C1E0916D038E2F90E0FC017197E13508
S11303C0F10508F03DC1E65BFF4FA2C6EDE6F3E0A0
S11303D0828190E0982F88272181820F911D90932C
S11303E06103809360038091600390916103853B76
S11303F0924070F080916003909161038A30934041
S113040050F48091600390916103855B924005C034
S113041080E090E002C084E590E090935B038093D9
S11304205A0320915A0330915B03A0E5B3EC79D6CB
S11304302BE530E040E050E04FD620935203309358
S11304405303409354035093550380915A0390915E
S11304505B0344E6489F9001499F300D1124369573
S1130460279536952795A7E8B1E65BD696958795A7
S1130470969587959695879590935B0380935A03F9
S1130480DFC0EDE6F3E0828190E0982F8827218198
S1130490820F911D90935F0380935E0380915E03AE
S11304A090915F038132924070F080915E0390914D
S11304B05F038D37924050F480915E0390915F0307
S11304C08152924005C080E090E002C08BE590E04C
S11304D09093590380935803809158039091590342
S11304E024E6289FA001299F500D11249A01A7E119
S11304F0B8E617D6481B590B56954795840F951F98
S11305000024880F991F001C880F991F001C892F35
S1130510902D909359038093580392C0EDE6F3E035
S1130520828190E0982F88272181820F911D9093DA
S11305305D0380935C0380915C0390915D03449719
S113054068F080915C0390915D038536910548F4D1
S113055080915C0390915D03449705C080E090E036
S113056002C080E590E090935703809356038091F6
S113057056039091570344E6489F9001499F300DDC
S11305801124ADECBCECCDD50024880F991F001CC0
S1130590880F991F001C892F902D909357038093E7
S11305A056034EC080916E03882309F449C081E04C
S11305B08093510345C0EDE6F3E0828190E0982FEB
S11305C088272181820F911D9093500380934F03BC
S11305D037C0EDE6F3E0828190E0982F88272181EF
S11305E0820F911D90934E0380934D0329C0EDE635
S11305F0F3E0828190E0982F88272181820F911D5A
S113060090934C0380934B031BC0EDE6F3E082818F
S113061090E0982F88272181820F911D90934A039F
S1130620809349030DC0EDE6F3E0828190E0982FBA
S113063088272181820F911D90934A038093490357
S1130640EDE6F3E085E793E01192E817F907E1F7A7
S11306501092EE0083E88093EF001092ED00FF917A
S1130660EF91BF91AF919F918F917F916F915F9126
S11306704F913F912F910F900BBE0F900FBE0F9093
S11306801F90189590E08B30910510F5FC01E5560C
S1130690FF4F3EC58BE091E008958BE191E0089512
S11306A08FE291E0089582E491E0089585E591E078
S11306B0089588E691E008958CE791E0089580E933
S11306C091E0089584EA91E0089587EB91E008951C
S11306D08AEC91E0089582E091E0089580916003AE
S11306E090916103813A924038F080916003909137
S11306F061038E31934018F083E08093620380910C
S11307005E0390915F038D30924038F080915E03D8
S113071090915F038139924018F084E080936203E2
S1130720089580915A0390915B032091580330916E
S11307305903865F821B853118F081E08093620340
S113074008958091600390916103892B31F0809129
S1130750600390916103019619F486E0809362032B
S113076080915E0390915F03892B31F080915E0349
S113077090915F03019619F487E08093620380915E
S11307805C0390915D03892B31F080915C0390911F
S11307905D03019619F488E08093620308958091C3
S11307A0490390914A030A9730F08091470390914E
S11307B048030A9718F489E0809362030895169A0F
S11307C085E08A95F1F7000016980895CF93DF939A
S11307D0D82F662311F0149A01C01498159881B18A
S11307E08F6081B9C2B1C07F8D2F82958F708C2BA1
S11307F082B9E5DFDF70DC2BD2B9E1DFCF60C2B9AB
S1130800DF91CF910895882311F0149A01C01498B0
S1130810159A81B1807F81B9169A85E08A95F1F79E
S1130820000090B1169885E08A95F1F70000169AB9
S113083085E08A95F1F7000020B12F70892F829509
S1130840807F1698822B089580E0DDDF8823E4F30F
S113085085E18A95F1F7000080E0D5CF0895CF9324
S1130860C82FF2DF60E08C2FB1DFCF9108956111C2
S113087003C08058F4CF0895613019F48054EFCF49
S11308800895623019F48C56EACF08958C52E7CF5C
S1130890089581E0E4CF0895CF93C82FD5DFCA30FF
S11308A099F4843148F090EC980F943138F08451E5
S11308B08C3230F080E005C080E403C084E101C0E4
S11308C084E58058CCDF03C061E08C2F7FDFCF91BB
S11308D00895CF93DF93EC012196FC018081882356
S11308E021F0DADF89918111FCCFDF91CF91089556
S11308F0CF93C82F81B18F6781B98FEF99EF01979B
S1130900F1F700C00000119A109A59DF8FE19EE4BC
S11309100197F1F700C0000052DF8FEF90E00197DC
S1130920F1F700C000004BDF8FEF90E00197F1F783
S113093000C00000109843DF8FEF90E00197F1F7BB
S113094000C0000088E28BDF88E089DFA2DF86E058
S113095086DF8C2F84DFCF9108951F920F920FB6FC
S11309600F9211240BB60F922F933F934F935F93E3
S11309706F937F938F939F93AF93BF93EF93FF9363
S113098080EC8093B20059D3FF91EF91BF91AF9166
S11309909F918F917F916F915F914F913F912F9193
S11309A00F900BBE0F900FBE0F901F901895FC0177
S11309B09081983048F4992319F09F5F90830895AB
S11309C0662311F081E0808308951F920F920FB681
S11309D00F9211240BB60F92CF92DF92EF92FF92F7
S11309E02F933F934F935F936F937F938F939F9333
S11309F0AF93BF93EF93FF9345E052E061E68DE33D
S1130A006DDC8091510381110EC169B1647084E47D
S1130A1093E0CDDF69B1687083E493E0C8DF80912F
S1130A204203813079F018F08230B9F020C041E0FF
S1130A3052E062E18DE352DC42E052E061E28DE398
S1130A404DDC15C041E052E063E18DE347DC42E058
S1130A5052E062E28DE342DC0AC041E052E061E12F
S1130A608DE33CDC42E052E063E28DE337DC8091CD
S1130A70620390916303892B11F081E0E5D28091A8
S1130A8064038230D1F018F4882341F0C1C083306C
S1130A9009F442C0843009F45FC0BAC080914403B1
S1130AA0813009F0B5C08091620390916303892B72
S1130AB009F0AEC083E0C8D2ABC080910001909130
S1130AC001019C012150310930930101209300015F
S1130AD0892B31F46FEF86E521DC84E0B5D298C030
S1130AE08091000190910101843A9F4159F443E0BF
S1130AF052E061E38DE3F2DB44E052E061E48DE334
S1130B00EDDB86C0809100019091010180349F410A
S1130B1009F07EC044DE7CC080914303813009F03B
S1130B2077C00FDEDBDD8091620390916303892B34
S1130B3009F06EC06FEF88E5F1DB82E085D280EDCD
S1130B4097E090934603809345036FEF85E5E6DBDA
S1130B506FEF89E5E3DB5CC080914203813051F49F
S1130B6043E052E061E38DE3B9DB44E052E061E449
S1130B708DE3B4DB80914203833021F410DEE1DDA8
S1130B80ADDDCFDD8091620390916303892BA1F5E4
S1130B9080914B0390914C038059C82ED12CE12CA9
S1130BA0F12C6091520370915303809154039091FE
S1130BB05503A70196014CD224E630E040E050E012
S1130BC069D2CA01B90141E152E081E396DB209187
S1130BD05203309153034091540350915503A4E6BA
S1130BE0B0E0AED2A701960155D2CA01B90140E1E5
S1130BF052E081E382DB0CC041E152E060E070E04E
S1130C0081E37BDB40E152E060E070E081E375DB8F
S1130C108091420390E0019663E070E028D28093D3
S1130C20420380EC86BDFF91EF91BF91AF919F91FC
S1130C308F917F916F915F914F913F912F91FF9091
S1130C40EF90DF90CF900F900BBE0F900FBE0F90E0
S1130C501F9018958CE04CDE85E0F6D184B5846055
S1130C6084BD90EC96BDEEE6F0E0808181608083E7
S1130C7088E08093B6009093B200E0EBF0E08081CE
S1130C808360808381E087BB809370007EDA87E194
S1130C9093E0A9DA83B7817F83BF83B7816083BF81
S1130CA078948895FFCF0F931F93CF9305E713E0B4
S1130CB0C0E06C2F80E0DBDDC8010BDECF5F0B5E94
S1130CC01F4FC430B1F7CF911F910F9108951F9317
S1130CD0CF93DF93EC01623009F463C028F46623F8
S1130CE061F0613071F182C1643009F4DFC008F44D
S1130CF09BC0653009F41CC179C185E1EAEDF1E0DE
S1130D00DE0101900D928A95E1F7DE01559680E1AE
S1130D10EFEEF1E001900D928A95E1F7DE019A96EB
S1130D2085E1EFEFF1E001900D928A95E1F7DE01A4
S1130D30DF9685E1E4E1F2E001900D928A95E1F716
S1130D4078C185E1E9E2F2E0DE0101900D928A9535
S1130D50E1F7809162039091630394DC9F938F93F6
S1130D601F9285E18F93CE0145969F938F9306D270
S1130D70DE019A9685E1EFEFF1E001900D928A95FC
S1130D80E1F7DE01DF9685E1EFEFF1E001900D92EE
S1130D908A95E1F70F900F900F900F900F900F909E
S1130DA048C185E1EEE3F2E0DE0101900D928A95FF
S1130DB0E1F780910001909101019F938F9383E566
S1130DC092E09F938F931F9215E11F93CE01459656
S1130DD09F938F93D3D1DE019A9685E1EFEFF1E0F3
S1130DE001900D928A95E1F72091470330914803D1
S1130DF08091490390914A033F932F939F938F933C
S1130E0086E692E09F938F931F921F93DE01DF96F5
S1130E10BF93AF93B3D18DB79EB742960FB6F894F4
S1130E209EBF0FBE8DBF05C120915E0330915F034D
S1130E3080916003909161033F932F939F938F93CD
S1130E4087E792E09F938F931F9215E11F93DF939F
S1130E50CF9394D180915C0390915D039F938F9382
S1130E6089E892E09F938F931F921F93CE0145963A
S1130E709F938F9383D1DE019A9685E1EFEFF1E0A2
S1130E8001900D928A95E1F7DE01DF9685E1EDE9A7
S1130E90F2E001900D928A95E1F78DB79EB74296E4
S1130EA00FB6F8949EBF0FBE8DBFC3C020915803E8
S1130EB03091590380915A0390915B033F932F9390
S1130EC09F938F9382EB92E09F938F931F9215E1F0
S1130ED01F93DF93CF9352D1809156039091570380
S1130EE09F938F9389EC92E09F938F931F921F930C
S1130EF0CE0145969F938F9341D1DE019A9685E169
S1130F00EFEFF1E001900D928A95E1F7DE01DF96B3
S1130F1085E1EFEFF1E001900D928A95E1F78DB74D
S1130F209EB742960FB6F8949EBF0FBE8DBF81C088
S1130F3020914703309148038091490390914A03DB
S1130F403F932F939F938F9386E692E09F938F9383
S1130F501F9215E11F93DF93CF9310D120914D037E
S1130F6030914E0380914F03909150033F932F9300
S1130F709F938F938FED92E09F938F931F921F9374
S1130F80CE0145969F938F93F9D0209158033091C9
S1130F90590380915A0390915B033F932F939F933E
S1130FA08F9382EB92E09F938F931F921F93CE01B6
S1130FB08A969F938F93E2D080914B0390914C0338
S1130FC09F938F9380EF92E09F938F931F921F9331
S1130FD0DE01DF96BF93AF93D1D08DB79EB78696CF
S1130FE00FB6F8949EBF0FBE8DBF23C085E1E3E02A
S1130FF0F3E0DE0101900D928A95E1F7DE0155964A
S113100085E1EFEFF1E001900D928A95E1F7DE01C1
S11310109A9685E1E8E1F3E001900D928A95E1F773
S1131020DE01DF9685E1EDE2F3E001900D928A9511
S1131030E1F7DF91CF911F9108956091640385E7F3
S113104093E045DE30CE089580936403F6CF08958F
S1131050DB018F939F9374D0BF91AF91A29F800DBA
S1131060911DA39F900DB29F900D1124089597FB9D
S1131070072E16F4009406D077FD08D06BD007FC39
S113108005D03EF4909581959F4F08957095619594
S11310907F4F0895A1E21A2EAA1BBB1BFD010DC0B0
S11310A0AA1FBB1FEE1FFF1FA217B307E407F50714
S11310B020F0A21BB30BE40BF50B661F771F881FF0
S11310C0991F1A9469F760957095809590959B0186
S11310D0AC01BD01CF010895052E97FB16F40094D1
S11310E00FD057FD05D0D6DF07FC02D046F408C068
S11310F050954095309521953F4F4F4F5F4F089540
S113110090958095709561957F4F8F4F9F4F08956F
S1131110EE0FFF1F0024001C0BBE0790F691E02D7C
S11311200994A29FB001B39FC001A39F700D811DBC
S11311301124911DB29F700D811D1124911D0895DC
S1131140F0DFA59F900DB49F900DA49F800D911D7D
S113115011240895AA1BBB1B51E107C0AA1FBB1F82
S1131160A617B70710F0A61BB70B881F991F5A952F
S1131170A9F780959095BC01CD0108950F931F9315
S1131180CF93DF93CDB7DEB72E970FB6F894DEBFBB
S11311900FBECDBF0D891E898F89988D26E02C83C3
S11311A01A83098397FF02C080E090E801979E8329
S11311B08D83AE01455E5F4F698D7A8DCE010196B8
S11311C019D04D815E8157FD0AC02F8138854217A1
S11311D053070CF49A01F801E20FF31F10822E96C4
S11311E00FB6F894DEBF0FBECDBFDF91CF911F9134
S11311F00F9108952F923F924F925F926F927F9238
S11312008F929F92AF92BF92CF92DF92EF92FF9212
S11312100F931F93CF93DF93CDB7DEB72B970FB602
S1131220F894DEBF0FBECDBF6C017B018A01FC01C7
S113123017821682838181FFBFC1CE0101963C01D2
S1131240F6019381F70193FD859193FF81917F01CD
S1131250882309F4ADC1853239F493FD859193FF58
S113126081917F01853221F4B60190E0D6D1E8CF97
S1131270912C212C312CFFE1F315D8F08B3279F02D
S113128038F4803279F08332A1F4232D20611DC01B
S11312908D3261F0803369F4232D216016C0832DD3
S11312A08260382EE32DE4603E2E2AC0F32DF860D0
S11312B01DC037FC2DC020ED280F2A3040F08E329F
S11312C0B9F436FC75C1232D2064322E19C036FEC4
S11312D006C08AE0989E200D1124922E11C0EAE0E7
S11312E02E9E200D1124222EF32DF0623F2E08C0D5
S11312F08C3621F4832D8068382E02C0883641F460
S1131300F70193FD859193FF81917F018111B3CF03
S1131310982F9F7D9554933028F40C5F1F4F9FE3C3
S113132099830DC0833631F0833771F0833509F02A
S113133055C020C0F801808189830E5F1F4F882427
S11313408394912C530112C02801F2E04F0E511CDA
S1131350F801A080B18036FE03C0692D70E002C0A0
S11313606FEF7FEFC5014ED14C018201F32DFF7762
S11313703F2E15C0280122E0420E511CF801A08026
S1131380B18036FE03C0692D70E002C06FEF7FEFBD
S1131390C5012DD14C01F32DF0683F2E820133FCA1
S11313A019C0822D90E088169906A0F4B60180E257
S11313B090E033D12A94F5CFF50137FC859137FEBF
S11313C081915F01B60190E028D121102A9421E097
S11313D0821A91088114910479F7E1C0843611F0DE
S11313E0893639F5F80137FE07C060817181828141
S11313F093810C5F1F4F08C060817181072E000C20
S1131400880B990B0E5F1F4FF32DFF763F2E97FF2E
S113141009C090958095709561957F4F8F4F9F4F30
S1131420F0683F2E2AE030E0A30133D1882E8618DD
S113143044C0853731F4232D2F7EB22E2AE030E0CC
S113144025C0932D997FB92E8F36C1F018F48835B5
S113145079F0AEC0803719F0883721F0A9C0E92FA0
S1131460E061BE2EB4FE0DC0FB2DF460BF2E09C09A
S113147034FE0AC0292F2660B22E06C028E030E0D0
S113148005C020E130E002C020E132E0F801B7FEFF
S113149007C060817181828193810C5F1F4F06C0F8
S11314A06081718180E090E00E5F1F4FA301F1D055
S11314B0882E8618FB2DFF773F2E36FE0DC0232D78
S11314C02E7FA22E891458F434FE0BC032FC09C0BE
S11314D0832D8E7EA82E05C0B82CA32C03C0B82C57
S11314E001C0B92CA4FE0FC0FE01E80DF11D8081DE
S11314F0803321F49A2D997EA92E09C0A2FE06C03C
S1131500B394B39404C08A2D867809F0B394A3FCF1
S113151010C0A0FE06C0B21480F4280C922C9B18B4
S11315200DC0B21458F4B60180E290E076D0B394C2
S1131530F8CFB21418F42B1802C0982C212CA4FE56
S11315400FC0B60180E390E068D0A2FE16C0A1FCF3
S113155003C088E790E002C088E590E0B6010CC0C3
S11315608A2D867851F0A1FE02C08BE201C080E290
S1131570A7FC8DE2B60190E050D0891430F4B60196
S113158080E390E04AD09A94F8CF8A94F301E80D6E
S1131590F11D8081B60190E040D08110F6CF222069
S11315A009F44ECEB60180E290E037D02A94F7CF0A
S11315B0F6018681978102C08FEF9FEF2B960FB6BD
S11315C0F894DEBF0FBECDBFDF91CF911F910F9175
S11315D0FF90EF90DF90CF90BF90AF909F908F904F
S11315E07F906F905F904F903F902F900895FC01F3
S11315F00590615070400110D8F7809590958E0F3A
S11316009F1F0895FC016150704001900110D8F7AC
S1131610809590958E0F9F1F08950F931F93CF93DE
S1131620DF93FB01238121FD03C08FEF9FEF2CC0CB
S113163022FF16C046815781248135814217530702
S113164044F4A081B1819D012F5F3F4F31832083FA
S11316508C93268137812F5F3F4F3783268314C0B5
S11316608B01EC01FB010084F185E02D0995892BA8
S1131670E1F6D80116968D919C91179701961796CD
S11316809C938E931697CE01DF91CF911F910F916A
S11316900895FA01AA27283051F1203181F1E89404
S11316A06F936E7F6E5F7F4F8F4F9F4FAF4FB1E051
S11316B03ED0B4E03CD0670F781F891F9A1FA11D4C
S11316C0680F791F8A1F911DA11D6A0F711D811D4D
S11316D0911DA11D20D009F468943F912AE0269F12
S11316E011243019305D3193DEF6CF010895462F71
S11316F04770405D4193B3E00FD0C9F7F6CF462F52
S11317004F70405D4A3318F0495D31FD40524193BA
S113171002D0A9F7EACFB4E0A69597958795779577
S11317206795BA95C9F700976105710508959B01FE
S1131730AC010A2E06945795479537952795BA9587
S1131740C9F7620F731F841F951FA01D0895F89495
S1051750FFCFC5
S113175210274E6F206572726F72004761732064A6
S1131762697363726570616E6379004761732026E1
S1131772206272616B6520707265737365640047E1
S113178261732031206F7574206F662072616E67F9
S113179265004761732032206F7574206F66207272
S11317A2616E6765004272616B65206F7574206FAC
S11317B2662072616E67650047617320312073652C
S11317C26E736F72206661756C7479004761732061
S11317D2322073656E736F72206661756C74790062
S11317E24272616B652073656E736F7220666175F8
S11317F26C7479004E6F2070756D7020776174651A
S11318027220666C6F770050756D702074656D7010
S113181220746F6F206869676800556E6B6E6F770E
S11318226E206572726F723F2100202020202020DA
S1131832202048552D322020202020202020005313
S11318426F6674776172653A2056322E3031002009
S11318522020202020202020202020202020202082
S11318622020200020507265737320626C756520FD
S1131872627574746F6E20200020202020202121A4
S1131882214552524F522121212020202000205054
S113189272656368617267696E672E2E2E2020203E
S11318A220200020253564202020202020202020F4
S11318B2202020202000466C6F773A204C25356486
S11318C220205225356400476173313A253464205F
S11318D2476173323A253464004272616B653A257A
S11318E234642020202020202020202000507265F3
S11318F2737320677265656E20746F206265676911
S11319026E00476173313A25336425252C204761E3
S113191273323A2533642525004272616B653A2598
S1131922336425252020202020202020202000523E
S1131932706D3A20464C25356420465225356400A4
S11319425374656572706F733A20253564202020C4
S113195220200020556E6B6E6F776E207363726564
S1131962656E2049442020002054656C6C204A6531
S113197272656D7920746F20666978200020686929
S11319827320737475666620202020202020202076
S105199220002F
S9030000FC
