S01B000043616E436F6D6D756E69636174696F6E5F76332E7372656399
S113000049C0000057C0000055C0000053C00000A4
S113001051C000004FC000004DC000004BC00000A4
S113002049C0000047C0000045C0000043C00000B4
S113003041C000003FC000003DC000003BC00000C4
S113004039C0000037C0000049C0000033C00000C0
S113005031C000002FC000002DC000002BC00000E4
S113006029C0000027C0000025C0000023C00000F4
S113007021C000001FC000001DC000001BC0000004
S113008019C0000017C0000015C0000013C0000014
S113009011C0000011241FBECFEFD0E1DEBFCDBFE1
S11300A021E0A0E0B1E001C01D92A031B207E1F768
S11300B003D124C1A5CF8093C4009093C50086E0EA
S11300C08093C20088E18093C1000895E0ECF0E0E1
S11300D0908195FFFDCF8093C60008951F920F92E3
S11300E00FB60F9211240BB60F92CF92DF92EF92BC
S11300F0FF920F931F932F933F934F935F936F93AD
S11301007F938F939F93AF93BF93CF93DF93EF939B
S1130110FF93EDEEF0E0E0808091EC00807F80833F
S11301208091EE0085FF25C08091EF008F70F82E3E
S11301301816C4F4C0E0D0E00F2EFAEFCF2ED12C65
S1130140F02DF60180818E0100501F4FF80180834D
S11301508BE5BCDFF8018081B9DF8DE5B7DF21963F
S1130160CF157CF38AE0B2DFEEEEF0E080818F7D84
S11301708083E092ED0083E88093EF00FF91EF919C
S1130180DF91CF91BF91AF919F918F917F916F91AB
S11301905F914F913F912F911F910F91FF90EF909D
S11301A0DF90CF900F900BBE0F900FBE0F901F905B
S11301B01895E1E6F0E080E8808310820895CF93FB
S11301C0DF9381E08093D8001092E50082E0809371
S11301D0E2008CE08093E30087E38093E40080E016
S11301E0CDEED0E0AFEEB0E0EEEEF0E0982F9295D9
S11301F0907F98831C9210828F5F8E30B9F780E1D4
S11302008093ED0082E08093DE0080EB8093DB003E
S11302101092F7001092F6001092F5001092F4007C
S113022083E88093EF00E8EDF0E0808182608083D2
S11302307894DF91CF9108951092ED00ECEDF0E009
S1130240808180FDFDCF1092EE001092F00010929C
S1130250F10080E28093F20080E48093F30080E078
S113026090E0AAEFB0E0FC01E85FFE4F20812C9300
S1130270019688309105B9F783E48093EF000895DF
S1130280CF93DF938091C000882394F48BE51EDF25
S1130290C6ECD0E088811ADF8DE518DFE8E0F1E0F4
S11302A08DE380838BE181831282C6DF888101C064
S11302B080E0DF91CF91089583E390E0FCDE79DF65
S11302C07EDF80E18DB974981091EE00CEEED0E01F
S11302D00F2EFFEEEF2EF12CF02DD2DF9881911727
S11302E0E1F31881888186FF02C0F70110828BE751
S11302F0EDDE812FEBDE8DE7E9DEEFCFF894FFCF63
S9030000FC
