:1000000049C0000064C0000062C0000060C0000081
:100010005EC000005CC000005AC0000058C0000074
:1000200056C0000054C0000052C0000050C0000084
:100030004EC000004CC000004AC0000048C0000094
:100040006EC1000044C0000056C0000040C0000067
:100050003EC000003CC000003AC0000038C00000B4
:1000600036C0000022C2000032C0000030C00000D4
:100070002EC000002CC000002AC0000028C00000D4
:1000800026C0000024C0000022C0000020C00000E4
:100090001EC0000011241FBECFEFD0E1DEBFCDBFD8
:1000A00011E0A0E0B1E0E8E7F5E000E00BBF02C03E
:1000B00007900D92AA30B107D9F721E0AAE0B1E08C
:1000C00001C01D92AA31B207E1F7ACD153C298CF5B
:1000D0008093C4009093C50086E08093C20088E1BD
:1000E0008093C1000895E0ECF0E0908195FFFDCF92
:1000F0008093C60008951F920F920FB60F9211249D
:100100000BB60F92EF92FF921F932F933F934F9353
:100110005F936F937F938F939F93AF93BF93CF938F
:10012000DF93EF93FF9380E18093ED001091EF0058
:100130001F70111694F4C0E0D0E00F2EFAEFEF2EEE
:10014000F12CF02DF7018081FE01E65FFE4F8083E8
:100150008081C9DF2196C117ACF38091F3008091B3
:10016000F20080E090E0FC01E65FFE4F1082FC01AF
:10017000EE5EFE4F1082019688309105A1F7109235
:10018000EE0083E88093EF001092ED008DEDABDF81
:10019000FF91EF91DF91CF91BF91AF919F918F919F
:1001A0007F916F915F914F913F912F911F91FF90A0
:1001B000EF900F900BBE0F900FBE0F901F901895F1
:1001C000E1E6F0E080E88083108280E18DB9749AE6
:1001D0000895CF93DF9321E02093D8001092E5009B
:1001E000843F21E0920751F482E08093E2008CE0AA
:1001F0008093E30087E38093E40019C08A3F910570
:1002000051F48EE08093E20084E08093E30083E188
:100210008093E4000CC08D37910549F486E080930B
:10022000E2008CE08093E30087E38093E40080E0C9
:10023000CDEED0E0AFEEB0E0EEEEF0E0982F92958C
:10024000907F98831C9210828F5F8E30B9F782E086
:100250008093DE0080EA8093DB00E8EDF0E08081AF
:1002600082608083DF91CF91089520E12093ED009B
:100270009C01369527953695279536952795209399
:10028000F3008295880F807E8093F2001092F10037
:100290001092F0001092F7001092F6001092F50004
:1002A0001092F40083E88093EF0008959C0110926F
:1002B000ED00ECEDF0E0908190FDFDCF1092EE00AE
:1002C0001092F0001092F100822F8295880F807EAC
:1002D0008093F20036952795369527953695279584
:1002E0002093F30080E090E0AAEFB0E0FC01EE5E26
:1002F000FE4F20812C93019688309105B9F76064F8
:100300006093EF00EEEEF0E0808186FFFDCF10926B
:10031000EF001092EE0080E18093ED0008951F92AF
:100320000F920FB60F9211240BB60F922F933F939B
:100330004F935F936F937F938F939F93AF93BF93ED
:10034000EF93FF93809108018F5F809308012091C4
:10035000080187E62802812D1124859585958595CC
:1003600027FD8395880F880F982F990F990F890F74
:1003700028130AC0E2E1F1E08DE3808381E081830C
:1003800062E081E092E092DF80910801082E000C8B
:10039000990B039662E370E0C6D0892B51F4E2E139
:1003A000F1E08DE3808382E0818362E081E092E08E
:1003B0007DDF80910801082E000C990B069664E6FB
:1003C00070E0B1D0892B51F4E2E1F1E08DE380835C
:1003D00083E0818362E081E092E068DF8091080140
:1003E000843619F481E080930801A99AFF91EF9176
:1003F000BF91AF919F918F917F916F915F914F913D
:100400003F912F910F900BBE0F900FBE0F901F903A
:10041000189510BA11BA80EC80937C008FE8809315
:100420007A00089583E390E053DECADE84EF91E022
:10043000D0DEEFDF789487E193E017DF80E090E093
:10044000C2E1D1E0BB24B3946894CC24C1F80F2E50
:10045000F3E0DF2EF02DE12CF12C0F2EFDE3AF2E7B
:10046000F02D01E010E005C0802F912F02C08E2DED
:100470009F2D65990DC0892BB9F7A882D982BA82C0
:10048000CB8264E081E092E011DF802F912FF1CFE9
:10049000019769F71882B982CA82DB8264E081E041
:1004A00092E004DF8E2D9F2DE4CF1F920F920FB6A6
:1004B0000F9211240BB60F922F933F934F935F939C
:1004C0006F937F938F939F93AF93BF93CF93DF935C
:1004D000EF93FF93C091780080917900D0E0D82B02
:1004E000E0917C00E370F0E0EE0FFF1FE050FF4F63
:1004F000D183C0838D2FF7DD8C2FF5DDFF91EF9138
:10050000DF91CF91BF91AF919F918F917F916F912B
:100510005F914F913F912F910F900BBE0F900FBEA7
:100520000F901F90189597FB072E16F4009406D095
:1005300077FD08D00BD007FC05D03EF4909581954F
:100540009F4F0895709561957F4F0895AA1BBB1B1F
:1005500051E107C0AA1FBB1FA617B70710F0A61BC3
:10056000B70B881F991F5A95A9F780959095BC01E4
:08057000CD010895F894FFCFBE
:0A0578001000AA023000400001004C
:00000001FF
