:1000000049C00000C9C40000D1C4000011C50000EF
:1000100051C50000BAC500005AC000001FC600004C
:1000200089C6000054C0000052C0000050C000004B
:100030004EC000004CC000004AC00000E5C60000F1
:1000400046C0000044C0000038C1000040C00000AD
:100050003EC000003CC000003AC0000038C00000B4
:1000600036C000006EC0000032C0000030C000008A
:100070002EC000002CC000002AC00000E2C6000014
:1000800026C0000024C0000022C0000020C00000E4
:100090001EC0000011241FBECFEFD0E1DEBFCDBFD8
:1000A00011E0A0E0B1E0EAECFEE000E00BBF02C02E
:1000B00007900D92AA30B107D9F721E0AAE0B1E08C
:1000C00001C01D92AA32B207E1F7DED6FCC698CF76
:1000D0008FE087B988B910BA81BB87E080937A0036
:1000E000089590917C00292F2C7F91E0980F9370B8
:1000F000922B90937C00EAE7F0E09081906C9083E3
:10010000908194FFFDCFEAE7F0E090819F729083A9
:10011000A8E7B0E09C91E9E7F0E020813C913093C2
:100120000B01308130930A018370E82FF0E0EE0F6D
:10013000FF1FE050FF4F892F90E0922B9183808327
:1001400008951F920F920FB60F9211240F900FBEB9
:100150000F901F901895CF93DF9320E82AB95F98EE
:1001600021E02093D8001092E500883E23E092071A
:1001700049F41092E2002CE02093E30026E3209360
:10018000E4001BC0843F21E0920751F482E0809399
:10019000E2008CE08093E30087E38093E40019C0E1
:1001A0008A3F910551F48EE08093E20084E08093D1
:1001B000E30083E18093E4000CC08D37910549F49E
:1001C00086E08093E2008CE08093E30087E38093F5
:1001D000E40080E0CDEED0E0AFEEB0E0EEEEF0E097
:1001E000982F9295907F98831C9210828F5F8E300B
:1001F000B9F782E08093DE0080EA8093DB00E8EDCF
:10020000F0E0808182608083DF91CF91089520E1CA
:100210002093ED009C0136952795369527953695C8
:1002200027952093F3008295880F807E8093F200BB
:100230001092F1001092F0008FEF8093F70080EEA3
:100240008093F60083E88093EF0008959C0110925C
:10025000ED00ECEDF0E0908190FDFDCF1092EE000E
:100260001092F0001092F100822F8295880F807E0C
:100270008093F200369527953695279536952795E4
:100280002093F300EAE1F1E022E231E0AAEFB0E0EE
:1002900081918C93E217F307D9F760646093EF00C4
:1002A000EEEEF0E0808186FFFDCF1092EF0010921D
:1002B000EE0080E18093ED0008951F920F920FB63B
:1002C0000F9211240BB60F924F925F926F927F9212
:1002D0008F929F92AF92BF92CF92DF92EF92FF9256
:1002E0000F931F932F933F934F935F936F937F933E
:1002F0008F939F93AF93BF93CF93DF93EF93FF932E
:1003000080E18093ED000091EF000F70101674F4FF
:10031000E2E2F1E02FEF200F30E02D5D3E4FAAEF3B
:10032000B0E08C918193E217F307D9F7C091F30005
:100330008091F200829586958770D0E0CC0FDD1F0A
:10034000CC0FDD1FCC0FDD1FC82BC13082E0D807DA
:1003500009F08DC0809122018D3309F081C1C02E3A
:10036000002E000CDD08A2E0CA16D1040CF479C0FE
:10037000EE24E394F12C7724739410E00F2EF0E038
:10038000AF2EF1E0BF2EF02D0F2EF3E15F2EF02DFA
:100390000F2EFCE08F2EF1E09F2EF02D0F2EF2E1BC
:1003A0006F2EF02DF701EE5DFE4F80818131D9F483
:1003B00083E097DEE12FF0E0E65EFE4FD701AE5D11
:1003C000BE4F8C918083F50186819781E1E0E10F3A
:1003D000F0E0E65EFE4F9083E2E0E10FF0E01D5FAB
:1003E000E65EFE4F8083F701EE5DFE4F8081823135
:1003F000C9F4E12FF0E0E65EFE4F6082D40114966E
:100400008C91149715969C91E1E0E10FF0E0E65E87
:10041000FE4F9083E2E0E10FF0E01D5FE65EFE4FED
:10042000808317C08331A9F4E12FF0E0E65EFE4F30
:100430005082F40186819781E1E0E10FF0E0E65E11
:10044000FE4F9083E2E0E10FF0E01D5FE65EFE4FBD
:1004500080837394E72CF12CEC14FD040CF4A2CFF0
:1004600001C010E0612F87E193E0F0DEF9C0C230F7
:10047000F2E0DF0709F08AC0809122018D3309F094
:100480005DC1A02E002E000CBB0882E0A816B104AE
:100490000CF476C0EE24E394F12C11E0D12CF7019A
:1004A000EE5DFE4F80818132E9F480E01ADEED2DB1
:1004B000F0E0E65EFE4FD701AE5DBE4F8C918083CB
:1004C000E1E0ED0DF0E0E65EFE4F80910B018083F0
:1004D000E2E0ED0DF0E0A3E0DA0EE65EFE4F809183
:1004E0000A018083F701EE5DFE4F80818232E9F4DC
:1004F00081E0F7DDED2DF0E0E65EFE4FD701AE5D69
:10050000BE4F8C918083E1E0ED0DF0E0E65EFE4FA2
:1005100080910B018083E2E0ED0DF0E0B3E0DB0EB3
:10052000E65EFE4F80910A018083F701EE5DFE4F8B
:1005300080818332E9F482E0D4DDED2DF0E0E65EE7
:10054000FE4FD701AE5DBE4F8C918083E1E0ED0D93
:10055000F0E0E65EFE4F80910B018083E2E0ED0D5E
:10056000F0E083E0D80EE65EFE4F80910A018083C2
:100570001F5FE12EF12CEA14FB040CF490CF01C0B4
:10058000D12C6D2D87E193E061DED8C0C330A2E0AD
:10059000DA0709F065C0809122018D3309F0B6C1F8
:1005A000E02E000FFF08B2E0EB16F1040CF452C08D
:1005B000C1E0D0E011E000E00F2EF0E0CF2EF1E03E
:1005C000DF2EF02D0F2EF1E39F2EF02D0F2EFCE0ED
:1005D000AF2EF1E0BF2EF02DFE01EE5DFE4F8081CB
:1005E0008133B1F4E02FF0E0E65EFE4F9082F5013A
:1005F00084819581E1E0E00FF0E0E65EFE4F9083BC
:10060000E2E0E00FF0E00D5FE65EFE4F80831BC08E
:100610008233C9F480E065DDE02FF0E0E65EFE4F56
:10062000CE5DDE4F88818083E1E0E00FF0E0E65EA2
:10063000FE4F1082E2E0E00FF0E00D5FE65EFE4F5D
:10064000D6018C9180831F5FC12FD0E0CE15DF05CE
:100650001CF201C000E0602F87E193E0F7DD56C196
:10066000C430B2E0DB0709F069C0809122018D330C
:1006700009F04CC1E02E000FFF08E2E0EE16F10495
:100680000CF456C0C1E0D0E011E000E00F2EF0E025
:10069000CF2EF1E0DF2EF02D0F2EF1E49F2EF02D66
:1006A0000F2EFCE0AF2EF1E0BF2EF02DFE01EE5D2F
:1006B000FE4F80818134C9F4E02FF0E0E65EFE4F0A
:1006C0009082D50114968C91149715969C91E1E037
:1006D000E00FF0E0E65EFE4F9083E2E0E00FF0E036
:1006E0000D5FE65EFE4F80831BC08234C9F480E05C
:1006F000F8DCE02FF0E0E65EFE4FCE5DDE4F888155
:100700008083E1E0E00FF0E0E65EFE4F1082E2E081
:10071000E00FF0E00D5FE65EFE4FD6018C91808326
:100720001F5FC12FD0E0CE15DF050CF4BFCF01C095
:1007300000E0602F87E193E089DDE8C0C530D2405A
:1007400009F0E4C0002E000C110B023011050CF46E
:10075000DDC081E090E0C1E00F2EF4E55F2EF02DCA
:100760000F2EF8E0AF2EF1E0BF2EF02D412C0F2E12
:10077000FAE1EF2EF1E0FF2EF02D0F2EF3E56F2EB4
:10078000F02D6894772471F80F2EF2E58F2EF02D5E
:100790000F2EFCE0CF2EF1E0DF2EF02DD3E00F2E58
:1007A000F1E59F2EF02DFC01EE5DFE4F80818D3333
:1007B00009F041C0CF5FEC2FF0E0EE5DFE4F80818D
:1007C000813561F4F7019082D60114969C911497BB
:1007D00015962C91218392836D2F19C0823561F477
:1007E000F7018082D60112968C91129713969C91F4
:1007F000918382836D2F1CC0833541F4F7016082A1
:10080000D50112968C918183672D12C0642D843599
:1008100079F4E62FF0E0E65EFE4F5082E1E0E60F6D
:10082000F0E06E5FE65EFE4FD50111968C918083FD
:1008300087E193E00BDDEC2FF0E0EE5DFE4F808171
:10084000853569F43E9AE1E0EC0FF0E0CE5FEE5DB5
:10085000FE4F8081882311F0469A01C04698EC2F04
:10086000F0E0EE5DFE4F8081863569F4399AE1E073
:10087000EC0FF0E0CE5FEE5DFE4F8081882311F03B
:10088000419A01C04198EC2FF0E0EE5DFE4F80816F
:10089000873569F43B9AE1E0EC0FF0E0CE5FEE5D66
:1008A000FE4F8081882311F0439A01C04398EC2FBA
:1008B000F0E0EE5DFE4F8081883569F43C9AE1E01E
:1008C000EC0FF0E0CE5FEE5DFE4F8081882311F0EB
:1008D000449A01C04498EC2FF0E0EE5DFE4F808119
:1008E000893569F43A9AE1E0EC0FF0E0CE5FEE5D15
:1008F000FE4F8081882311F0429A01C04298CF5F59
:100900008C2F90E0801791070CF44DCFE2E2F1E0DC
:10091000AAE1B1E08AE291E011921D92E817F9078D
:10092000D9F71092EE0083E88093EF001092ED006B
:10093000FF91EF91DF91CF91BF91AF919F918F91F7
:100940007F916F915F914F913F912F911F910F91E7
:10095000FF90EF90DF90CF90BF90AF909F908F90DF
:100960007F906F905F904F900F900BBE0F900FBED7
:100970000F901F901895EFE6F0E0808181608083F2
:10098000E1E7F0E08081816080838AEA80936900FA
:1009900082EA80936A0008951F920F920FB60F9219
:1009A00011240F900FBE0F901F9018951F920F9259
:1009B0000FB60F9211240BB60F922F933F934F93C4
:1009C0005F936F937F938F939F93AF93BF93EF93B7
:1009D000FF938091840060918500109295001092A1
:1009E000940070E0762F6627680F711D89E09DE303
:1009F00056D2ECE0F1E066837783EAE1F1E0108221
:100A0000618362E087E193E021DCFF91EF91BF9188
:100A1000AF919F918F917F916F915F914F913F9196
:100A20002F910F900BBE0F900FBE0F901F90189537
:100A30001F920F920FB60F9211240BB60F922F93A5
:100A40003F934F935F936F937F938F939F93AF9356
:100A5000BF93EF93FF93E4E9F0E08081A5E9B0E074
:100A60006C911C92108270E0762F6627680F711DC2
:100A700089E09DE314D2ECE0F1E064837583EAE160
:100A8000F1E01082618362E087E193E0DFDBFF91B8
:100A9000EF91BF91AF919F918F917F916F915F91F6
:100AA0004F913F912F910F900BBE0F900FBE0F9063
:100AB0001F9018951F920F920FB60F9211240BB62C
:100AC0000F922F933F935F936F937F938F939F9397
:100AD000AF93BF93CF93DF93EF93FF93809119016F
:100AE000882311F1E4E9F0E06081862F90E0C4E111
:100AF000D1E09B838A83A5E9B0E06C9170E0762F0A
:100B00006627680F791F7B836A831C92108289E0B5
:100B10009DE3C5D170930F0160930E0181E0809336
:100B20000901109219011DC0209194008091950037
:100B300090E0982F8827820F911D20911601309107
:100B40001701369527958217930730F481E080933B
:100B500019011092090105C01092190181E08093DA
:100B60000901FF91EF91DF91CF91BF91AF919F91DB
:100B70008F917F916F915F913F912F910F900BBE5D
:100B80000F900FBE0F901F9018951F920F920FB6E7
:100B90000F9211240BB60F922F933F935F936F9395
:100BA0007F938F939F93AF93BF93CF93DF93EF93F5
:100BB000FF9380911901882309F1E4E9F0E0608155
:100BC000862F90E0C4E1D1E09B838A83A5E9B0E061
:100BD0006C9170E0762F6627680F791F7B836A839C
:100BE0001C92108289E09DE35AD170930F016093AB
:100BF0000E0110920901109219011CC0209194005D
:100C00008091950090E0982F8827820F911D209168
:100C1000160130911701369527958217930730F406
:100C200081E0809319018093090104C01092190199
:100C300010920901FF91EF91DF91CF91BF91AF9198
:100C40009F918F917F916F915F913F912F910F9025
:100C50000BBE0F900FBE0F901F9018951F920F9212
:100C60000FB60F9211240BB60F922F933F935F9301
:100C70006F937F938F939F93AF93BF93CF93DF93A4
:100C8000EF93FF9380911801882319F1A4E8B0E055
:100C90008C9190E0E4E1F1E091838083C5E8D0E0BD
:100CA000288130E0322F2227820F931F9183808387
:100CB00018821C926081718189E09DE3F0D070936D
:100CC0000D0160930C0181E08093080110921801DE
:100CD0001DC0209184008091850090E0982F882786
:100CE000820F911D209114013091150136952795A1
:100CF0008217930730F481E0809318011092080165
:100D000005C01092180181E080930801FF91EF91D6
:100D1000DF91CF91BF91AF919F918F917F916F9113
:100D20005F913F912F910F900BBE0F900FBE0F90D0
:100D30001F9018951F920F920FB60F9211240BB6A9
:100D40000F922F933F935F936F937F938F939F9314
:100D5000AF93BF93CF93DF93EF93FF9380911801ED
:100D6000882311F1A4E8B0E08C9190E0E4E1F1E097
:100D700091838083C5E8D0E0288130E0322F22279C
:100D8000820F931F9183808318821C9260817181EE
:100D900089E09DE384D070930D0160930C01109263
:100DA0000801109218011CC02091840080918500D8
:100DB00090E0982F8827820F911D20911401309187
:100DC0001501369527958217930730F481E08093BB
:100DD00018018093080104C01092180110920801B4
:100DE000FF91EF91DF91CF91BF91AF919F918F9143
:100DF0007F916F915F913F912F910F900BBE0F905C
:100E00000FBE0F901F9018951F920F920FB60F9262
:100E100011240BB60F928F93EF93FF93ECE0F1E068
:100E2000118210821782168281E080930801FF915F
:100E3000EF918F910F900BBE0F900FBE0F901F90F0
:100E400018951F920F920FB60F9211240BB60F92A6
:100E50008F93EF93FF93ECE0F1E0138212821582FF
:100E6000148281E080930901FF91EF918F910F909F
:100E70000BBE0F900FBE0F901F901895E1E6F0E0AB
:100E800080E8808310820895F9DF84EF91E063D9D0
:100E900082E092E0BCD91CD96EDD7894FFCFAA1B0A
:100EA000BB1B51E107C0AA1FBB1FA617B70710F055
:100EB000A61BB70B881F991F5A95A9F78095909587
:0A0EC000BC01CD010895F894FFCFA6
:0A0ECA00100020003000400001017C
:00000001FF
