:1000000049C0000064C0000062C0000060C0000081
:100010005EC000005CC000005AC0000058C0000074
:1000200056C0000054C0000052C0000050C0000084
:100030004EC000004CC000004AC0000048C0000094
:1000400046C0000044C000003DC1000040C00000A8
:100050003EC000003CC000003AC0000038C00000B4
:1000600036C000004BC0000032C0000030C00000AD
:100070002EC000002CC000002AC0000028C00000D4
:1000800026C0000024C0000022C0000020C00000E4
:100090001EC0000011241FBECFEFD0E1DEBFCDBFD8
:1000A00011E0A0E0B1E0ECEDF9E000E00BBF02C030
:1000B00007900D92A830B107D9F721E0A8E0B1E090
:1000C00001C01D92A831B207E1F72DD485C498CFA5
:1000D00010BA11BA80EC80937C008FE880937A008C
:1000E0000895ECE7F0E0908183709C7F892B8083FA
:1000F000EAE7F0E080818064808308951F920F9288
:100100000FB60F9211240BB60F922F933F934F937C
:100110005F936F937F938F939F93AF93BF93CF938F
:10012000DF93EF93FF93C091780080917900D0E046
:10013000D82BE0917C00E370F0E0EE0FFF1FE05061
:10014000FF4FD183C0838D2F3FD48C2F3DD4FF919F
:10015000EF91DF91CF91BF91AF919F918F917F915F
:100160006F915F914F913F912F910F900BBE0F9028
:100170000FBE0F901F901895CF93DF9321E020932F
:10018000D8001092E500843F21E0920751F482E00C
:100190008093E2008CE08093E30087E38093E400A7
:1001A00019C08A3F910551F48EE08093E20084E00B
:1001B0008093E30083E18093E4000CC08D379105C8
:1001C00049F486E08093E2008CE08093E30087E3CB
:1001D0008093E40080E0CDEED0E0AFEEB0E0EEEE54
:1001E000F0E0982F9295907F98831C9210828F5FF9
:1001F0008E30B9F782E08093DE0080EA8093DB00E6
:10020000E8EDF0E0808182608083DF91CF910895F6
:1002100020E12093ED009C01369527953695279592
:10022000369527952093F3008295880F807E8093E2
:10023000F2001092F1001092F0008FEF8093F7001F
:1002400080EE8093F6001092F5001092F40083E89F
:100250008093EF0008959C011092ED00ECEDF0E02A
:10026000908190FDFDCF1092EE001092F000109260
:10027000F100822F8295880F807E8093F200369560
:10028000279536952795369527952093F300E8E036
:10029000F1E020E131E0AAEFB0E081918C93E21728
:1002A000F307D9F760646093EF00EEEEF0E0808131
:1002B00086FFFDCF1092EF001092EE0080E1809358
:1002C000ED0008951F920F920FB60F9211240BB6F6
:1002D0000F92CF92DF92EF92FF920F931F932F9383
:1002E0003F934F935F936F937F938F939F93AF93BE
:1002F000BF93CF93DF93EF93FF93749880E1809344
:10030000ED00D091EF00DF701D1674F4E0E1F1E034
:100310002FEF2D0F30E02F5E3E4FAAEFB0E08C9113
:100320008193E217F307D9F70091F3008091F2006F
:1003300082958695877010E0000F111F000F111F26
:10034000000F111F082B073183E0180709F06FC059
:1003500062C0F601E05FFE4F80818F73813079F4D7
:1003600033D3F601E05FFE4F6F0180818295869561
:100370008695837029D3F601818126D3CE5FCC2E5A
:10038000D12CF601E05FFE4F80818F73823081F4C3
:100390001BD3C601805F9E4F6C01FC01808182955A
:1003A00086958695837010D3F60181810DD3CE5F3B
:1003B000CC2ED12CF601E05FFE4F80818F7383300D
:1003C00081F402D3C601805F9E4F6C01FC018081E5
:1003D0008295869586958370F7D2F6018181F4D255
:1003E000CE5FCC2ED12CF601E05FFE4F80818F7363
:1003F0008430B1F4E9D2C601805F9E4F6C01FC01EC
:1004000080818295869586958370DED2F601818102
:10041000DBD2CE5F05C0C0E0ED2E0D2E000CFF0834
:10042000CC2ED12CCE14DF040CF493CF23C1013099
:10043000F2E01F0709F08DC0809110018D3309F0A3
:1004400086C074984D2F0D2E000C550B423051056F
:100450000CF478C0E0E0F1E022813381C901969587
:10046000879596958795B82FB07CB260D22EE080A4
:10047000F180C7019695879596958795A82FA07CC2
:10048000A16024813581C9019695879596958795B8
:10049000782F707C7360F22E26813781C901969582
:1004A000879596958795382F307C3460C22F81E0F0
:1004B00090E021E060E0FC01E05FFE4F8081813050
:1004C00069F4E62FF0E0E85FFE4FA083E1E0E60F7D
:1004D000F0E06E5FE85FFE4FE0821EC0823069F49C
:1004E000E62FF0E0E85FFE4FB083E1E0E60FF0E0DA
:1004F0006E5FE85FFE4FD0821DC0833069F4E62F47
:10050000F0E0E85FFE4F7083E1E0E60FF0E06E5F41
:10051000E85FFE4FF0820EC0843061F4E62FF0E019
:10052000E85FFE4F3083E1E0E60FF0E06E5FE85FEA
:10053000FE4FC0832F5F822F90E0841795070CF445
:10054000BACF01C060E087E193E085DE24C1749AF0
:1005500022C1023082E0180709F08CC0809110019E
:100560008D3309F085C074984D2FDD0F550B423047
:1005700051050CF478C0E0E0F1E002811381C8017C
:100580009695879596958795B82FB07CB260208117
:100590003181C9019695879596958795A82FA07C5E
:1005A000A160122F24813581C90196958795969572
:1005B0008795782F707C7360D22F26813781C9018F
:1005C0009695879596958795382F307C3460C22F05
:1005D00081E090E021E060E0FC01E05FFE4F80817F
:1005E000813069F4E62FF0E0E85FFE4FA083E1E0A0
:1005F000E60FF0E06E5FE85FFE4F10831EC08230B2
:1006000069F4E62FF0E0E85FFE4FB083E1E0E60F2B
:10061000F0E06E5FE85FFE4F00831DC0833069F439
:10062000E62FF0E0E85FFE4F7083E1E0E60FF0E0D8
:100630006E5FE85FFE4FD0830EC0843061F4E62F1A
:10064000F0E0E85FFE4F3083E1E0E60FF0E06E5F40
:10065000E85FFE4FC0832F5F822F90E084179507DD
:100660000CF4BACF01C060E087E193E0F4DD22C171
:10067000749A20C1033092E0190709F08CC0809170
:1006800010018D3309F085C074984D2FDD0F550B87
:10069000423051050CF478C0E0E0F1E002811381B2
:1006A000C8019695879596958795B82FB07CB260CE
:1006B00020813181C9019695879596958795A82FB8
:1006C000A07CA160122F24813581C9019695879560
:1006D00096958795782F707C7360D22F268137810D
:1006E000C9019695879596958795382F307C34600B
:1006F000C22F81E090E021E060E0FC01E05FFE4F6E
:100700008081813069F4E62FF0E0E85FFE4FA0833E
:10071000E1E0E60FF0E06E5FE85FFE4F10831EC081
:10072000823069F4E62FF0E0E85FFE4FB083E1E04D
:10073000E60FF0E06E5FE85FFE4F00831DC0833080
:1007400069F4E62FF0E0E85FFE4F7083E1E0E60F2A
:10075000F0E06E5FE85FFE4FD0830EC0843061F43E
:10076000E62FF0E0E85FFE4F3083E1E0E60FF0E0D7
:100770006E5FE85FFE4FC0832F5F822F90E084178B
:1007800095070CF4BACF01C060E087E193E063DD28
:1007900091C0749A8FC00430124009F08BC08091D0
:1007A00010018D3309F085C074984D2FDD0F550B66
:1007B000423051050CF478C0E0E0F1E00281138191
:1007C000C8019695879596958795B82FB07CB260AD
:1007D00020813181C9019695879596958795A82F97
:1007E000A07CA160122F24813581C901969587953F
:1007F00096958795782F707C7360D22F26813781EC
:10080000C9019695879596958795382F307C3460E9
:10081000C22F81E090E021E060E0FC01E05FFE4F4C
:100820008081813069F4E62FF0E0E85FFE4FA0831D
:10083000E1E0E60FF0E06E5FE85FFE4F10831EC060
:10084000823069F4E62FF0E0E85FFE4FB083E1E02C
:10085000E60FF0E06E5FE85FFE4F00831DC083305F
:1008600069F4E62FF0E0E85FFE4F7083E1E0E60F09
:10087000F0E06E5FE85FFE4FD0830EC0843061F41D
:10088000E62FF0E0E85FFE4F3083E1E0E60FF0E0B6
:100890006E5FE85FFE4FC0832F5F822F90E084176A
:1008A00095070CF4BACF01C060E087E193E0D3DC98
:1008B00001C0749AE0E1F1E0A8E0B1E088E191E0E4
:1008C00011921D92E817F907D9F71092EE0083E80C
:1008D0008093EF001092ED008DED76D0749AFF9129
:1008E000EF91DF91CF91BF91AF919F918F917F91C8
:1008F0006F915F914F913F912F911F910F91FF90B9
:10090000EF90DF90CF900F900BBE0F900FBE0F9027
:100910001F901895E1E6F0E080E88083108280E186
:100920008DB9749A089583E390E043D0F3DF8AEFA2
:1009300090E022DCCDDB789484E092E069DC80E01A
:1009400090E0C8E0D1E00F2EF3E0DF2EF02D6894A8
:10095000992492F8E12CF12C0F2EFDE3AF2EF02D0F
:10096000BB24B3946894CC24C1F801E010E005C026
:10097000802F912F02C08E2D9F2D65990EC0892B3F
:10098000B9F7A882B982CA826D2D87E193E063DC52
:1009900080E0A7DB802F912FF0CF019761F71882BD
:1009A000D9829A826D2D87E193E055DC8E2D9F2DA3
:1009B000E4CF8093C4009093C50086E08093C2008A
:1009C00088E18093C1000895E0ECF0E0908195FF0C
:0C09D000FDCF8093C6000895F894FFCF7F
:0809DC00100020003000400073
:00000001FF
