:1000000049C0000064C0000062C0000060C0000081
:100010005EC000005CC000005AC0000058C0000074
:1000200056C0000054C0000052C0000050C0000084
:100030004EC000004CC000004AC0000048C0000094
:1000400046C0000044C0000056C0000040C0000090
:100050003EC000003CC000003AC0000038C00000B4
:1000600036C0000034C0000032C0000030C00000C4
:100070002EC000002CC000002AC0000028C00000D4
:1000800026C0000024C0000022C0000020C00000E4
:100090001EC0000011241FBECFEFD0E1DEBFCDBFD8
:1000A00011E0A0E0B1E0ECEFF2E000E00BBF02C035
:1000B00007900D92A230B107D9F721E0A2E0B1E09C
:1000C00001C01D92AE33B207E1F702D115C198CF3E
:1000D0008093C4009093C50086E08093C20088E1BD
:1000E0008093C1000895E0ECF0E0908195FFFDCF92
:1000F0008093C60008951F920F920FB60F9211249D
:100100000BB60F922F933F934F935F936F937F9311
:100110008F939F93AF93BF93CF93DF93EF93FF930F
:100120001092850010928400EDEEF0E050818091F5
:10013000EC00807F80832091F3008091F200909109
:10014000EE0095FF57C030E0220F331F220F331F00
:10015000220F331F829586958770282B9091EF0090
:100160009F70E09101014091000181E0E41708F0E7
:1001700080E08E9FE02D1124EF5FAE2FB0E0AA5FEC
:10018000BE4F3C9381E0E41708F080E08E9FE02DA5
:100190001124EF5FE0930101F0E0EA5FFE4F20835E
:1001A00019161CF520E030E0CAEFD0E061E070E005
:1001B000D9018881F901E25DFE4F8083E091010160
:1001C000862FE41708F0872F8E9FE02D1124EF5F14
:1001D000E0930101A25DBE4F8C91F0E0EA5FFE4F1B
:1001E00080832F5F3F4F29171CF31092EE0083E8A6
:1001F0008093EF005093ED00E5E8F0E0808190E01F
:100200009093050180930401C4E8D0E0888190E0D8
:100210009093030180930201808165DF888163DF11
:10022000FF91EF91DF91CF91BF91AF919F918F910E
:100230007F916F915F914F913F912F910F900BBEE6
:100240000F900FBE0F901F901895E1E6F0E080E848
:10025000808310820895CF93DF9381E08093D8004C
:100260001092E50082E08093E2008CE08093E3004E
:1002700087E38093E40080E0CDEED0E0AFEEB0E025
:10028000EEEEF0E0982F9295907F98831C9210826A
:100290008F5F8E30B9F782E08093DE0080EA809332
:1002A000DB0080E18093ED001092F7001092F600E1
:1002B0001092F5001092F40083E88093EF00E8EDCF
:1002C000F0E08081826080837894DF91CF910895FF
:1002D00083E390E0FDDEB9DFBEDF80E18DB9749885
:1002E0001092800081E08093810010928200109231
:0C02F000850010928400FFCFF894FFCF2F
:0202FC001E0BD7
:00000001FF
