:1000000049C0000057C0000055C0000053C00000A8
:1000100051C000004FC000004DC000004BC00000A8
:1000200049C0000047C0000045C0000043C00000B8
:1000300041C000003FC000003DC000003BC00000C8
:1000400039C0000037C0000051C0000033C00000BC
:1000500031C000002FC000002DC000002BC00000E8
:1000600029C0000027C0000025C0000023C00000F8
:1000700021C000001FC000001DC000001BC0000008
:1000800019C0000017C0000015C0000013C0000018
:1000900011C0000011241FBECFEFD0E1DEBFCDBFE5
:1000A00021E0A0E0B1E001C01D92A031B207E1F76C
:1000B000B0D0BBC0A5CF8093C4009093C50086E0AC
:1000C0008093C20088E18093C1000895E0ECF0E0E5
:1000D00080818823ECF78091C6000895E0ECF0E081
:1000E000908195FFFDCF8093C60008951F920F92D7
:1000F0000FB60F9211240BB60F922F933F934F938D
:100100005F936F937F938F939F93AF93BF93CF939F
:10011000EF93FF93EDEEF0E0C0818091EC00807FE3
:1001200080838091EE0085FF1BC03091EF003F700F
:10013000131664F480E090E0AAEFB0E02C91FC018B
:10014000E050FF4F208301968317C4F38AE0C6DF97
:1001500088E88093EF00EEEEF0E080818F7D808371
:10016000C093ED00FF91EF91CF91BF91AF919F911F
:100170008F917F916F915F914F913F912F910F9050
:100180000BBE0F900FBE0F901F901895E1E6F0E0A8
:1001900080E8808310820895CF93DF9381E080937D
:1001A000D8001092E5008EE08093E20084E0809316
:1001B000E30083E18093E40080E0CDEED0E0AFEE99
:1001C000B0E0EEEEF0E0982F9295907F98831C922D
:1001D00010828F5F8E30B9F780E18093ED0082E06E
:1001E0008093DE0080EB8093DB001092F70010928A
:1001F000F6001092F5001092F40088E88093EF006A
:10020000E8EDF0E08081826080837894DF91CF9187
:10021000089583E390E04FDFB9DFBEDF80E18DB961
:0E022000749854DF84E45ADFFCCFF894FFCFCB
:00000001FF
