S01B000043616E436F6D6D756E69636174696F6E5F76312E737265639B
S113000049C0000057C0000055C0000053C00000A4
S113001051C000004FC000004DC000004BC00000A4
S113002049C0000047C0000045C0000043C00000B4
S113003041C000003FC000003DC000003BC00000C4
S113004039C0000037C0000036C0000033C00000D3
S113005031C000002FC000002DC000002BC00000E4
S113006029C0000027C0000025C0000023C00000F4
S113007021C000001FC000001DC000001BC0000004
S113008019C0000017C0000015C0000013C0000014
S113009011C0000011241FBECFEFD0E1DEBFCDBFE1
S11300A021E0A0E0B1E001C01D92A031B207E1F768
S11300B0B5D0E1C0A5CF1F920F920FB60F921124B5
S11300C00BB60F922F933F934F938F939F93AF93BE
S11300D0BF93EF93FF93EDEEF0E040818091EC004D
S11300E0807F80838091EE0085FF14C03091EF0003
S11300F03F70131664F480E090E0AAEFB0E02C9116
S1130100FC01E050FF4F208301968317C4F388E875
S11301108093EF001092EE004093ED00FF91EF9179
S1130120BF91AF919F918F914F913F912F910F90DC
S11301300BBE0F900FBE0F901F901895E1E6F0E0F4
S113014080E88083108280E18DB90895CF93DF9396
S113015081E08093D8001092E50082E08093E20071
S11301608CE08093E30087E38093E40080E0CDEEAD
S1130170D0E0AFEEB0E0EEEEF0E0982F9295907FF5
S113018098831C9210828F5F8E30B9F780E1809340
S1130190ED0082E08093DE0080EB8093DB00109220
S11301A0F7001092F6001092F5001092F40083E824
S11301B08093EF00E8EDF0E08081826080837894A2
S11301C0DF91CF9108951092ED00ECEDF0E0808185
S11301D080FDFDCF1092EE001092F0001092F1001D
S11301E01092F2001092F30080E090E0AAEFB0E0E9
S11301F0FC01E85FFE4F20812C9301968830910525
S1130200B9F783E48093EF00EEEEF0E0808186FF9F
S1130210FDCF1092EF001092EE0008958FDF96DF6D
S113022080E000E00F2EF8E0EF2EF1E0FF2EF02D3D
S113023011E00F2EF5E5DF2EF02DC0E0D1E0659939
S113024008C081110EC0F701D0827498BCDF812FE1
S11302500BC0813041F4F7011082749AB4DF802F0F
S113026003C0812F01C0802F9881953511F47498B3
S10D0270E6CF749AE4CFF894FFCFB0
S9030000FC
