S01A000043616E5F4E6F64655F4D6F64756C655F76352E7372656344
S113000049C0000058C4000060C40000A0C400003F
S1130010E0C4000049C500005AC00000AEC500009D
S113002018C6000054C0000052C0000050C00000B8
S11300304EC000004CC000004AC0000074C600005E
S1130040BDC6000044C0000030C1000040C0000034
S11300503EC000003CC000003AC0000038C00000B0
S113006036C0000066C0000032C0000030C000008E
S11300702EC000002CC000002AC0000071C6000081
S113008026C0000024C0000022C0000020C00000E0
S11300901EC0000011241FBECFEFD0E1DEBFCDBFD4
S11300A011E0A0E0B1E0EAEBFEE000E00BBF02C02B
S11300B007900D92AA30B107D9F721E0AAE0B1E088
S11300C001C01D92A832B207E1F76DD6F4C698CFED
S11300D08FE087B988B910BA11BA87E080937A00A3
S11300E0089590917C00292F2C7F91E0980F9370B4
S11300F0922B90937C00EAE7F0E09081906C9083DF
S1130100908194FFFDCFEAE7F0E090819F729083A5
S113011090917800209179008370E82FF0E0EE0F41
S1130120FF1FE050FF4F892F90E0922B9183808333
S113013008951F920F920FB60F9211240F900FBEC5
S11301400F901F901895CF93DF9320E82AB95F98FA
S113015021E02093D8001092E500883E23E0920726
S113016049F41092E2002CE02093E30026E320936C
S1130170E4001BC0843F21E0920751F482E08093A5
S1130180E2008CE08093E30087E38093E40019C0ED
S11301908A3F910551F48EE08093E20084E08093DD
S11301A0E30083E18093E4000CC08D37910549F4AA
S11301B086E08093E2008CE08093E30087E3809301
S11301C0E40080E0CDEED0E0AFEEB0E0EEEEF0E0A3
S11301D0982F9295907F98831C9210828F5F8E3017
S11301E0B9F782E08093DE0080EA8093DB00E8EDDB
S11301F0F0E0808182608083DF91CF91089520E1D7
S11302002093ED009C0136952795369527953695D4
S113021027952093F3008295880F807E8093F200C7
S11302201092F1001092F0008FEF8093F70080EEAF
S11302308093F60083E88093EF0008959C01109268
S1130240ED00ECEDF0E0908190FDFDCF1092EE001A
S11302501092F0001092F100822F8295880F807E18
S11302608093F200369527953695279536952795F0
S11302702093F300E8E1F1E020E231E0AAEFB0E0FE
S113028081918C93E217F307D9F760646093EF00D0
S1130290EEEEF0E0808186FFFDCF1092EF00109229
S11302A0EE0080E18093ED0008951F920F920FB647
S11302B00F9211240BB60F925F926F927F928F92DE
S11302C09F92AF92BF92CF92DF92EF92FF920F93E1
S11302D01F932F933F934F935F936F937F938F93CA
S11302E09F93AF93BF93CF93DF93EF93FF9380E1FB
S11302F08093ED001091EF001F70111674F4E0E28A
S1130300F1E02FEF210F30E02F5D3E4FAAEFB0E078
S11303108C918193E217F307D9F7C091F300809190
S1130320F200829586958770D0E0CC0FDD1FCC0F4C
S1130330DD1FCC0FDD1FC82BC13082E0D80709F0C8
S11303408AC0809120018D3309F087C1C12E012E0E
S1130350000CDD08E2E0CE16D1040CF476C0EE24E5
S1130360E394F12C7724739400E00F2EF0E0AF2E89
S1130370F1E0BF2EF02D0F2EF1E15F2EF02D0F2EA8
S1130380FAE08F2EF1E09F2EF02D6894662464F835
S1130390F701E05EFE4F80818930E1F483E0A1DE65
S11303A0F50126813781E02FF0E0E85EFE4FC901B8
S11303B09695879596958795807CD701A05EBE4FCC
S11303C09C91892B8083E1E0E00FF0E00E5FE85E12
S11303D0FE4F2083F701E05EFE4F80818031B1F44F
S11303E0E02FF0E0E85EFE4F6082F40194818581A5
S11303F0E1E0E00FF0E0E85EFE4F9083E2E0E00F22
S1130400F0E00D5FE85EFE4F808317C08131A9F4F0
S1130410E02FF0E0E85EFE4F5082F4019681878180
S1130420E1E0E00FF0E0E85EFE4F9083E2E0E00FF1
S1130430F0E00D5FE85EFE4F80837394E72CF12CAF
S1130440EC14FD040CF4A4CF01C000E0602F87E19C
S113045093E0F4DE02C1C230F2E0DF0709F090C09D
S1130460809120018D3309F065C1A12E012E000C6D
S1130470BB0882E0A816B1040CF47CC0EE24E3941B
S1130480F12C01E0912C0F2EF0E0CF2EF1E0DF2EC5
S1130490F02DF701E05EFE4F80818431E9F480E0C5
S11304A020DEF60120813181E92DF0E0E85EFE4F87
S11304B0C9019695879596958795807CD701A05E0E
S11304C0BE4F9C91892B8083E1E0E90DF0E0939489
S11304D09394E85EFE4F2083F701E05EFE4F808137
S11304E08531E9F481E0FDDDF60122813381E92DD6
S11304F0F0E0E85EFE4FC90196958795969587953D
S1130500807CD701A05EBE4F9C91892B8083E1E063
S1130510E90DF0E093949394E85EFE4F2083F70195
S1130520E05EFE4F80818631E9F482E0DADDF60197
S113053024813581E92DF0E0E85EFE4FD701A05E0D
S1130540BE4FC9019695879596958795807C9C9119
S1130550892B8083E1E0E90DF0E093949394E85EC5
S1130560FE4F20830F5FE02EF12CEA14FB040CF401
S113057090CF01C0912C692D87E193E05FDEDAC052
S1130580C330F2E0DF0709F068C0809120018D33A9
S113059009F04CC1A12E110FBB0882E0A816B104CA
S11305A00CF455C0C1E0D0E001E010E00F2EF0E003
S11305B0CF2EF1E0DF2EF02D0F2EF5E09F2EF02D43
S11305C00F2EFAE0EF2EF1E0FF2EF02DFE01E05E9B
S11305D0FE4F80818530B1F4E12FF0E0E85EFE4FFC
S11305E09082F70194818581E1E0E10FF0E0E85E1B
S11305F0FE4F9083E2E0E10FF0E01D5FE85EFE4F06
S113060080831DC08730D9F480E06BDDF601208142
S11306103181E12FF0E0E85EFE4FC05EDE4FC9019C
S11306209695879596958795807C9881892B80836C
S1130630E1E0E10FF0E01E5FE85EFE4F20830F5F14
S1130640C02FD0E0CA15DB050CF4C0CF01C010E008
S1130650612F87E193E0F2DDE9C0C430F2E0DF0707
S113066009F068C0809120018D3309F0DFC0A12E0C
S1130670110FBB0882E0A816B1040CF455C0C1E008
S1130680D0E001E010E00F2EF0E0CF2EF1E0DF2EFD
S1130690F02D0F2EF6E09F2EF02D0F2EFAE0EF2E08
S11306A0F1E0FF2EF02DFE01E05EFE4F80818630EA
S11306B0B1F4E12FF0E0E85EFE4F9082F7019481FF
S11306C08581E1E0E10FF0E0E85EFE4F9083E2E037
S11306D0E10FF0E01D5FE85EFE4F80831DC08830AF
S11306E0D9F480E0FEDCF60120813181E12FF0E0D5
S11306F0E85EFE4FC05EDE4FC901969587959695DC
S11307008795807C9881892B8083E1E0E10FF0E07C
S11307101E5FE85EFE4F20830F5FC02FD0E0CA1536
S1130720DB050CF4C0CF01C010E0612F87E193E03A
S113073085DD7CC0C530D24009F078C080912001AD
S11307408D3309F073C0412F110F550B4230510501
S11307500CF468C0EAE0F1E0D2800381E480F58023
S11307601091090181E090E021E060E0D4E0C3E071
S1130770A8E0B1E072E031E0FC01E05EFE4F808170
S1130780813099F4E62FF0E0E85EFE4F3083E1E03B
S1130790E60FF0E0E85EFE4FE082E2E0E60FF0E014
S11307A06D5FE85EFE4FF08227C0823099F4E62F39
S11307B0F0E0E85EFE4F7083E1E0E60FF0E0E85E13
S11307C0FE4FD082E2E0E60FF0E06D5FE85EFE4FA0
S11307D0008320C0833081F4E62FF0E0E85EFE4F12
S11307E0C083E1E0E60FF0E06E5FE85EFE4F129634
S11307F08C91129780830EC0843061F4E62FF0E070
S1130800E85EFE4FD083E1E0E60FF0E06E5FE85E65
S1130810FE4F10832F5F822F90E0841795070CF40E
S1130820ABCF01C060E087E193E008DDE0E2F1E0F6
S1130830A8E1B1E088E291E011921D92E817F9076E
S1130840D9F71092EE0083E88093EF001092ED0048
S1130850FF91EF91DF91CF91BF91AF919F918F91D4
S11308607F916F915F914F913F912F911F910F91C4
S1130870FF90EF90DF90CF90BF90AF909F908F90BC
S11308807F906F905F900F900BBE0F900FBE0F90F4
S11308901F901895EFE6F0E0808181608083E1E7A6
S11308A0F0E08081816080838AEA8093690082EA33
S11308B080936A0008951F920F920FB60F9211242D
S11308C00F900FBE0F901F9018951F920F920FB6A6
S11308D00F9211240BB60F922F933F934F935F9374
S11308E06F937F938F939F93AF93BF93EF93FF93F4
S11308F0809184006091850010929500109294007C
S113090070E0762F6627680F711D89E09DE3BFD2E2
S1130910EAE0F1E066837783E8E1F1E01082618345
S113092062E087E193E08ADCFF91EF91BF91AF91A0
S11309309F918F917F916F915F914F913F912F91F3
S11309400F900BBE0F900FBE0F901F9018951F9223
S11309500F920FB60F9211240BB60F922F933F9361
S11309604F935F936F937F938F939F93AF93BF93B3
S1130970EF93FF93E4E9F0E08081A5E9B0E06C91A6
S11309801C92108270E0762F6627680F711D89E033
S11309909DE37DD2EAE0F1E064837583E8E1F1E070
S11309A01082618362E087E193E048DCFF91EF917C
S11309B0BF91AF919F918F917F916F915F914F9173
S11309C03F912F910F900BBE0F900FBE0F901F9071
S11309D018951F920F920FB60F9211240BB60F9217
S11309E02F933F935F936F937F938F939F93AF93D3
S11309F0BF93CF93DF93EF93FF93809117018823E5
S1130A0011F1E4E9F0E06081862F90E0C2E1D1E0E9
S1130A109B838A83A5E9B0E06C9170E0762F66270A
S1130A20680F791F7B836A831C92108289E09DE39F
S1130A302ED270930D0160930C0181E08093090123
S1130A40109217011DC0209194008091950090E0B0
S1130A50982F8827820F911D209114013091150140
S1130A60369527958217930730F481E08093170118
S1130A701092090105C01092170181E080930901C9
S1130A80FF91EF91DF91CF91BF91AF919F918F91A2
S1130A907F916F915F913F912F910F900BBE0F90BB
S1130AA00FBE0F901F9018951F920F920FB60F92C2
S1130AB011240BB60F922F933F935F936F937F9301
S1130AC08F939F93AF93BF93CF93DF93EF93FF9352
S1130AD080911701882309F1E4E9F0E06081862F11
S1130AE090E0C2E1D1E09B838A83A5E9B0E06C91F8
S1130AF070E0762F6627680F791F7B836A831C92C8
S1130B00108289E09DE3C3D170930D0160930C01C1
S1130B1010920901109217011CC020919400809139
S1130B20950090E0982F8827820F911D2091140141
S1130B3030911501369527958217930730F481E09B
S1130B40809317018093090104C010921701109239
S1130B500901FF91EF91DF91CF91BF91AF919F91E7
S1130B608F917F916F915F913F912F910F900BBE69
S1130B700F900FBE0F901F9018951F920F920FB6F3
S1130B800F9211240BB60F922F933F935F936F93A1
S1130B907F938F939F93AF93BF93CF93DF93EF9301
S1130BA0FF9380911601882319F1A4E8B0E08C9199
S1130BB090E0E2E1F1E091838083C5E8D0E0288110
S1130BC030E0322F2227820F931F91838083188273
S1130BD01C926081718189E09DE359D170930B016E
S1130BE060930A0181E080930801109216011DC0F0
S1130BF0209184008091850090E0982F8827820FAF
S1130C00911D209112013091130136952795821779
S1130C10930730F481E0809316011092080105C017
S1130C201092160181E080930801FF91EF91DF910A
S1130C30CF91BF91AF919F918F917F916F915F9170
S1130C403F912F910F900BBE0F900FBE0F901F90EE
S1130C5018951F920F920FB60F9211240BB60F9294
S1130C602F933F935F936F937F938F939F93AF9350
S1130C70BF93CF93DF93EF93FF9380911601882363
S1130C8011F1A4E8B0E08C9190E0E2E1F1E091830D
S1130C908083C5E8D0E0288130E0322F2227820FFC
S1130CA0931F9183808318821C926081718189E0F3
S1130CB09DE3EDD070930B0160930A01109208013B
S1130CC0109216011CC0209184008091850090E050
S1130CD0982F8827820F911D2091120130911301C2
S1130CE0369527958217930730F481E08093160197
S1130CF08093080104C01092160110920801FF911C
S1130D00EF91DF91CF91BF91AF919F918F917F919F
S1130D106F915F913F912F910F900BBE0F900FBE7B
S1130D200F901F9018951F920F920FB60F921124D7
S1130D300BB60F928F93EF93FF93EAE0F1E01182E9
S1130D4010821782168281E080930801FF91EF914F
S1130D508F910F900BBE0F900FBE0F901F901895A0
S1130D601F920F920FB60F9211240BB60F928F930E
S1130D70EF93FF93EAE0F1E013821282158214826A
S1130D8081E080930901FF91EF918F910F900BBE49
S1130D900F900FBE0F901F901895E1E6F0E080E8E9
S1130DA0808310820895F9DF84EF91E0CCD982E04A
S1130DB092E025DA8DD96EDD7894FFCF1F920F92E1
S1130DC00FB60F9211240BB60F92FF920F931F933D
S1130DD02F933F934F935F936F937F938F939F933F
S1130DE0AF93BF93CF93DF93EF93FF9316BC80E051
S1130DF078D98091000190910101893A22E092070B
S1130E0070F042E3489F9001499F300D1124C901BD
S1130E10805D9448909301018093000104C0109276
S1130E20010110920001C8E1D1E00F2EF0E9FF2E7C
S1130E30F02DF88200E011E0F8019081818199831E
S1130E408A8363E080E192E0F9D9F882F801908125
S1130E50818199838A8363E081E192E0EFD9FF91F4
S1130E60EF91DF91CF91BF91AF919F918F917F913E
S1130E706F915F914F913F912F911F910F91FF902F
S1130E800F900BBE0F900FBE0F901F901895AA1BCA
S1130E90BB1B51E107C0AA1FBB1FA617B70710F061
S1130EA0A61BB70B881F991F5A95A9F78095909593
S10D0EB0BC01CD010895F894FFCFB2
S10D0EBA1000200030004000010188
S9030000FC
