:1000000049C00000B1C40000B9C40000F9C4000038
:1000100039C50000A2C500005AC0000007C6000094
:1000200071C6000054C0000052C0000050C0000063
:100030004EC000004CC000004AC00000CDC6000009
:1000400046C0000044C0000030C1000040C00000B5
:100050003EC000003CC000003AC0000038C00000B4
:1000600036C0000066C0000032C0000030C0000092
:100070002EC000002CC000002AC00000CAC600002C
:1000800026C0000024C0000022C0000020C00000E4
:100090001EC0000011241FBECFEFD0E1DEBFCDBFD8
:1000A00011E0A0E0B1E0E8E9FEE000E00BBF02C033
:1000B00007900D92AA30B107D9F721E0AAE0B1E08C
:1000C00001C01D92A832B207E1F7C6D6E3C698CFA9
:1000D0008FE087B988B910BA81BB87E080937A0036
:1000E000089590917C00292F2C7F91E0980F9370B8
:1000F000922B90937C00EAE7F0E09081906C9083E3
:10010000908194FFFDCFEAE7F0E090819F729083A9
:1001100090917800209179008370E82FF0E0EE0F45
:10012000FF1FE050FF4F892F90E0922B9183808337
:1001300008951F920F920FB60F9211240F900FBEC9
:100140000F901F901895CF93DF9320E82AB95F98FE
:1001500021E02093D8001092E500883E23E092072A
:1001600049F41092E2002CE02093E30026E3209370
:10017000E4001BC0843F21E0920751F482E08093A9
:10018000E2008CE08093E30087E38093E40019C0F1
:100190008A3F910551F48EE08093E20084E08093E1
:1001A000E30083E18093E4000CC08D37910549F4AE
:1001B00086E08093E2008CE08093E30087E3809305
:1001C000E40080E0CDEED0E0AFEEB0E0EEEEF0E0A7
:1001D000982F9295907F98831C9210828F5F8E301B
:1001E000B9F782E08093DE0080EA8093DB00E8EDDF
:1001F000F0E0808182608083DF91CF91089520E1DB
:100200002093ED009C0136952795369527953695D8
:1002100027952093F3008295880F807E8093F200CB
:100220001092F1001092F0008FEF8093F70080EEB3
:100230008093F60083E88093EF0008959C0110926C
:10024000ED00ECEDF0E0908190FDFDCF1092EE001E
:100250001092F0001092F100822F8295880F807E1C
:100260008093F200369527953695279536952795F4
:100270002093F300E8E1F1E020E231E0AAEFB0E002
:1002800081918C93E217F307D9F760646093EF00D4
:10029000EEEEF0E0808186FFFDCF1092EF0010922D
:1002A000EE0080E18093ED0008951F920F920FB64B
:1002B0000F9211240BB60F924F925F926F927F9222
:1002C0008F929F92AF92BF92CF92DF92EF92FF9266
:1002D0000F931F932F933F934F935F936F937F934E
:1002E0008F939F93AF93BF93CF93DF93EF93FF933E
:1002F00080E18093ED000091EF000F70101674F410
:10030000E0E2F1E02FEF200F30E02F5D3E4FAAEF4B
:10031000B0E08C918193E217F307D9F7C091F30015
:100320008091F200829586958770D0E0CC0FDD1F1A
:10033000CC0FDD1FCC0FDD1FC82BC13082E0D807EA
:1003400009F08DC0809120018D3309F087C1C02E46
:10035000002E000CDD08A2E0CA16D1040CF479C00E
:10036000EE24E394F12C7724739410E00F2EF0E048
:10037000AF2EF1E0BF2EF02D0F2EF3E15F2EF02D0A
:100380000F2EFAE08F2EF1E09F2EF02D0F2EF2E1CE
:100390006F2EF02DF701E05EFE4F80818131D9F4A0
:1003A00083E09FDEE12FF0E0E85EFE4FD701A05E24
:1003B000BE4F8C918083F50186819781E1E0E10F4A
:1003C000F0E0E85EFE4F9083E2E0E10FF0E01D5FB9
:1003D000E85EFE4F8083F701E05EFE4F8081823150
:1003E000C9F4E12FF0E0E85EFE4F6082D40114967C
:1003F0008C91149715969C91E1E0E10FF0E0E85E96
:10040000FE4F9083E2E0E10FF0E01D5FE85EFE4FFB
:10041000808317C08331A9F4E12FF0E0E85EFE4F3E
:100420005082F40186819781E1E0E10FF0E0E85E1F
:10043000FE4F9083E2E0E10FF0E01D5FE85EFE4FCB
:1004400080837394E72CF12CEC14FD040CF4A2CF00
:1004500001C010E0612F87E193E0F0DEFFC0C23001
:10046000F2E0DF0709F08CC0809120018D3309F0A4
:1004700063C1802E002E000C990882E0881691043A
:100480000CF478C0EE24E394F12C11E0D12C0F2E63
:10049000F0E0AF2EF1E0BF2EF02DF701E05EFE4F51
:1004A00080818132D9F480E01CDEED2DF0E0E85E41
:1004B000FE4FD701A05EBE4F8C918083E1E0ED0D31
:1004C000F0E0E85EFE4F1082E2E0ED0DF0E0A3E028
:1004D000DA0EE85EFE4FD5018C918083F701E05E75
:1004E000FE4F80818232E1F481E0FBDDED2DF0E012
:1004F000E85EFE4FD701A05EBE4F8C918083E1E0A5
:10050000ED0DF0E0E85EFE4F1082E2E0ED0DF0E070
:10051000B3E0DB0EE85EFE4FD50112968C9180832E
:10052000F701E05EFE4F80818332E1F482E0D9DDA5
:10053000ED2DF0E0E85EFE4FD701A05EBE4F8C913E
:100540008083E1E0ED0DF0E0E85EFE4F1082E2E036
:10055000ED0DF0E0B3E0DB0EE85EFE4FD501149642
:100560008C9180831F5FE12EF12CE814F9040CF4C8
:1005700094CF01C0D12C6D2D87E193E05FDEDCC00C
:10058000C330B2E0DB0709F069C0809120018D33F0
:1005900009F0B5C1E02E000FFF08E2E0EE16F1040D
:1005A0000CF456C0C1E0D0E011E000E00F2EF0E006
:1005B000CF2EF1E0DF2EF02D0F2EF1E39F2EF02D48
:1005C0000F2EFAE0AF2EF1E0BF2EF02DFE01E05E1F
:1005D000FE4F80818133C9F4E02FF0E0E85EFE4FEA
:1005E0009082D50114968C91149715969C91E1E018
:1005F000E00FF0E0E85EFE4F9083E2E0E00FF0E015
:100600000D5FE85EFE4F80831BC08233C9F480E03B
:1006100068DDE02FF0E0E85EFE4FC05EDE4F8881CF
:100620008083E1E0E00FF0E0E85EFE4F1082E2E060
:10063000E00FF0E00D5FE85EFE4FD6018C91808305
:100640001F5FC12FD0E0CE15DF050CF4BFCF01C076
:1006500000E0602F87E193E0F1DD51C1C430B2E0EA
:10066000DB0709F069C0809120018D3309F047C193
:10067000E02E000FFF08E2E0EE16F1040CF456C085
:10068000C1E0D0E011E000E00F2EF0E0CF2EF1E06D
:10069000DF2EF02D0F2EF1E49F2EF02D0F2EFAE01D
:1006A000AF2EF1E0BF2EF02DFE01E05EFE4F808107
:1006B0008134C9F4E02FF0E0E85EFE4F9082D5016E
:1006C00014968C91149715969C91E1E0E00FF0E060
:1006D000E85EFE4F9083E2E0E00FF0E00D5FE85E41
:1006E000FE4F80831BC08234C9F480E0FADCE02F27
:1006F000F0E0E85EFE4FC05EDE4F88818083E1E07F
:10070000E00FF0E0E85EFE4F1082E2E0E00FF0E084
:100710000D5FE85EFE4FD6018C9180831F5FC12F75
:10072000D0E0CE15DF050CF4BFCF01C000E0602F94
:1007300087E193E083DDE3C0C530D24009F0DFC03C
:10074000002E000C110B101611060CF0D8C080E022
:1007500090E0C0E00F2EF4E55F2EF02D0F2EF8E0B4
:10076000AF2EF1E0BF2EF02D412C0F2EF8E1EF2E31
:10077000F1E0FF2EF02D0F2EF3E56F2EF02D689493
:10078000772471F80F2EF2E58F2EF02D0F2EFAE060
:10079000CF2EF1E0DF2EF02DD3E00F2EF1E59F2ECE
:1007A000F02DFC01E05EFE4F80818D3309F041C0E9
:1007B000CF5FEC2FF0E0E05EFE4F8081813561F489
:1007C000F7019082D60114969C91149715962C915E
:1007D000218392836D2F19C0823561F4F7018082E5
:1007E000D60112968C91129713969C9191838283D5
:1007F0006D2F1CC0833541F4F7016082D50112963C
:100800008C918183672D12C0642D843579F4E62F95
:10081000F0E0E85EFE4F5082E1E0E60FF0E06E5F50
:10082000E85EFE4FD50111968C91808387E193E0BD
:1008300005DDEC2FF0E0E05EFE4F8081853561F450
:10084000CF5F3E9AEC2FF0E0E05EFE4F8081882380
:1008500011F0469A01C04698EC2FF0E0E05EFE4FA2
:100860008081863561F4CF5F399AEC2FF0E0E05E4D
:10087000FE4F8081882311F0419A01C04198EC2FEE
:10088000F0E0E05EFE4F8081873561F4CF5F3B9AF8
:10089000EC2FF0E0E05EFE4F8081882311F0439A58
:1008A00001C04398EC2FF0E0E05EFE4F8081883578
:1008B00061F4CF5F3C9AEC2FF0E0E05EFE4F808168
:1008C000882311F0449A01C04498EC2FF0E0E05ED8
:1008D000FE4F8081893561F4CF5F3A9AEC2FF0E0CA
:1008E000E05EFE4F8081882311F0429A01C0429859
:1008F000CF5F8C2F90E0801791070CF452CFE0E28D
:10090000F1E0A8E1B1E088E291E011921D92E817D0
:10091000F907D9F71092EE0083E88093EF00109268
:10092000ED00FF91EF91DF91CF91BF91AF919F913A
:100930008F917F916F915F914F913F912F911F9177
:100940000F91FF90EF90DF90CF90BF90AF909F906E
:100950008F907F906F905F904F900F900BBE0F9095
:100960000FBE0F901F9018951F920F920FB60F9207
:1009700011240F900FBE0F901F9018951F920F9289
:100980000FB60F9211240BB60F922F933F934F93F4
:100990005F936F937F938F939F93AF93BF93EF93E7
:1009A000FF938091840060918500109295001092D1
:1009B000940070E0762F6627680F711D89E09DE333
:1009C00055D2EAE0F1E066837783E8E1F1E0108256
:1009D000618362E087E193E031DCFF91EF91BF91A9
:1009E000AF919F918F917F916F915F914F913F91C7
:1009F0002F910F900BBE0F900FBE0F901F90189568
:100A00001F920F920FB60F9211240BB60F922F93D5
:100A10003F934F935F936F937F938F939F93AF9386
:100A2000BF93EF93FF93E4E9F0E08081A5E9B0E0A4
:100A30006C911C92108270E0762F6627680F711DF2
:100A400089E09DE313D2EAE0F1E064837583E8E195
:100A5000F1E01082618362E087E193E0EFDBFF91D8
:100A6000EF91BF91AF919F918F917F916F915F9126
:100A70004F913F912F910F900BBE0F900FBE0F9093
:100A80001F9018951F920F920FB60F9211240BB65C
:100A90000F922F933F935F936F937F938F939F93C7
:100AA000AF93BF93CF93DF93EF93FF9380911701A1
:100AB000882311F1E4E9F0E06081862F90E0C2E143
:100AC000D1E09B838A83A5E9B0E06C9170E0762F3A
:100AD0006627680F791F7B836A831C92108289E0E6
:100AE0009DE3C4D170930D0160930C0181E080936C
:100AF0000901109217011DC020919400809195006A
:100B000090E0982F8827820F911D20911401309139
:100B10001501369527958217930730F481E080936D
:100B200017011092090105C01092170181E080930E
:100B30000901FF91EF91DF91CF91BF91AF919F910B
:100B40008F917F916F915F913F912F910F900BBE8D
:100B50000F900FBE0F901F9018951F920F920FB617
:100B60000F9211240BB60F922F933F935F936F93C5
:100B70007F938F939F93AF93BF93CF93DF93EF9325
:100B8000FF9380911701882309F1E4E9F0E0608187
:100B9000862F90E0C2E1D1E09B838A83A5E9B0E093
:100BA0006C9170E0762F6627680F791F7B836A83CC
:100BB0001C92108289E09DE359D170930D016093DE
:100BC0000C0110920901109217011CC02091940091
:100BD0008091950090E0982F8827820F911D209199
:100BE000140130911501369527958217930730F43B
:100BF00081E0809317018093090104C010921701CE
:100C000010920901FF91EF91DF91CF91BF91AF91C8
:100C10009F918F917F916F915F913F912F910F9055
:100C20000BBE0F900FBE0F901F9018951F920F9242
:100C30000FB60F9211240BB60F922F933F935F9331
:100C40006F937F938F939F93AF93BF93CF93DF93D4
:100C5000EF93FF9380911601882319F1A4E8B0E087
:100C60008C9190E0E2E1F1E091838083C5E8D0E0EF
:100C7000288130E0322F2227820F931F91838083B7
:100C800018821C926081718189E09DE3EFD070939E
:100C90000B0160930A0181E0809308011092160114
:100CA0001DC0209184008091850090E0982F8827B6
:100CB000820F911D209112013091130136952795D5
:100CC0008217930730F481E0809316011092080197
:100CD00005C01092160181E080930801FF91EF9109
:100CE000DF91CF91BF91AF919F918F917F916F9144
:100CF0005F913F912F910F900BBE0F900FBE0F9001
:100D00001F9018951F920F920FB60F9211240BB6D9
:100D10000F922F933F935F936F937F938F939F9344
:100D2000AF93BF93CF93DF93EF93FF93809116011F
:100D3000882311F1A4E8B0E08C9190E0E2E1F1E0C9
:100D400091838083C5E8D0E0288130E0322F2227CC
:100D5000820F931F9183808318821C92608171811E
:100D600089E09DE383D070930B0160930A01109298
:100D70000801109216011CC020918400809185000A
:100D800090E0982F8827820F911D209112013091B9
:100D90001301369527958217930730F481E08093ED
:100DA00016018093080104C01092160110920801E8
:100DB000FF91EF91DF91CF91BF91AF919F918F9173
:100DC0007F916F915F913F912F910F900BBE0F908C
:100DD0000FBE0F901F9018951F920F920FB60F9293
:100DE00011240BB60F928F93EF93FF93EAE0F1E09B
:100DF000118210821782168281E080930801FF9190
:100E0000EF918F910F900BBE0F900FBE0F901F9020
:100E100018951F920F920FB60F9211240BB60F92D6
:100E20008F93EF93FF93EAE0F1E013821282158231
:100E3000148281E080930901FF91EF918F910F90CF
:100E40000BBE0F900FBE0F901F901895E1E6F0E0DB
:100E500080E8808310820895F9DF84EF91E073D9F0
:100E600082E092E0CCD934D97894FFCFAA1BBB1B87
:100E700051E107C0AA1FBB1FA617B70710F0A61B9A
:100E8000B70B881F991F5A95A9F780959095BC01BB
:080E9000CD010895F894FFCF95
:0A0E980010002000300040000101AE
:00000001FF
